:020000040800F2
:1000000000000220950A00081D0A0008230A0008C3
:10001000290A00082F0A0008350A0008000000001D
:100020000000000000000000000000003B0A000883
:10003000490A000800000000570A0008650A000885
:10004000E50A0008E50A0008E50A0008E50A0008D4
:10005000E50A0008E50A0008E50A0008E50A0008C4
:10006000E50A0008E50A0008E50A0008E50A0008B4
:10007000E50A0008E50A0008E50A0008E50A0008A4
:10008000E50A0008E50A0008E50A0008000000008B
:10009000000000000000000000000000E50A000869
:1000A000E50A0008E50A0008E50A0008E50A000874
:1000B000E50A0008E50A0008E50A0008E50A000864
:1000C000E50A0008E50A0008E50A0008E50A000854
:1000D000E50A0008E50A0008E50A0008000000003B
:1000E000E50A0008E50A0008E50A0008000000002B
:1000F000000000000000000000000000E50A000809
:1001000000000000E50A0008E50A0008E50A00080A
:1001100000000000000000000000000000000000DF
:10012000E50A0008E50A0008E50A0008E50A0008F3
:10013000E50A0008000000000000000000000000C8
:10014000000000000000000000000000E50A0008B8
:10015000E50A0008E50A0008E50A0008E50A0008C3
:10016000E50A0008E50A00080000000000000000A1
:10017000000000000000000000000000000000007F
:1001800000000000E50A0008000000000000000078
:08019000E50A0008E50A000879
:1001980010B5054C237833B9044B13B10448AFF3B9
:1001A80000800123237010BD0C0000200000000017
:1001B8007419000808B5034B1BB103490348AFF392
:1001C800008008BD0000000010000020741900081D
:1001D80053B94AB9002908BF00281CBF4FF0FF31A6
:1001E8004FF0FF3000F070B9ADF1080C6DE904CEA6
:1001F80000F006F8DDF804E0DDE9022304B07047FA
:100208002DE9F047089E0D4604460F46002B4AD1BB
:100218008A42944665D9B2FA82F343B102FA03FCE2
:10022800C3F120029F4020FA02F217439C404FEA94
:100238001C4E1FFA8CF5B7FBFEF1220C0EFB117752
:1002480042EA074201FB05F090420AD91CEB020280
:1002580001F1FF3780F01C81904240F21981023988
:100268006244121AA4B2B2FBFEF00EFB102244EA5A
:10027800024400FB05F5A5420AD91CEB040400F171
:10028800FF3280F00781A54240F2048164440238BD
:1002980040EA0140641B00211EB1DC400023C6E98E
:1002A8000043BDE8F0878B4208D9002E00F0ED80AE
:1002B8000021C6E900050846BDE8F087B3FA83F1D6
:1002C800002949D1AB4202D3824200F2F880841A55
:1002D80065EB030201201746002EE2D0C6E900476D
:1002E800DFE702B9FFDEB2FA82F3002B40F090801C
:1002F8008A1A4FEA1C471FFA8CFE0121B2FBF7F558
:1003080007FB1520220C42EA00420EFB05F0904242
:1003180008D91CEB020205F1FF3802D2904200F224
:10032800CB804546121AA4B2B2FBF7F007FB1022A5
:1003380044EA02440EFB00FEA64508D91CEB04045F
:1003480000F1FF3202D2A64500F2BB801046A4EBB2
:100358000E0440EA05409FE7C1F120078B4022FACE
:1003680007FC4CEA030C05FA01F420FA07F3FD40F8
:100378004FEA1C492343B5FBF9F81FFA8CFE09FB29
:1003880018551C0C44EA054408FB0EF5A54202FA70
:1003980001F200FA01F00BD91CEB040408F1FF3A52
:1003A80080F08880A54240F28580A8F10208644464
:1003B800641B9DB2B4FBF9F309FB134445EA0444FA
:1003C80003FB0EFEA64508D91CEB040403F1FF3518
:1003D8006CD2A6456AD9023B644443EA0843A3FBAE
:1003E8000295A4EB0E04AC42C846AE4656D353D091
:1003F80056B1B0EB080264EB0E0404FA07F7CA40E2
:10040800CC401743C6E9007418460021BDE8F087C0
:10041800C3F1200102FA03FC20FA01F225FA01F1E6
:100428009D402A434FEA1C471FFA8CFEB1FBF7F0A8
:1004380007FB1015110C41EA054100FB0EF58D4232
:1004480004FA03F408D91CEB010100F1FF382FD29C
:100458008D422DD902386144491B92B2B1FBF7F5A0
:1004680007FB151142EA014205FB0EF1914208D93A
:100478001CEB020205F1FF3816D2914214D9023D55
:100488006244521A45EA004138E73146304608E7E7
:100498003946E6E61046FBE64845A9D2B9EB02081C
:1004A80065EB0C0E013BA3E74546EAE72B4694E7CC
:1004B8004046D1E7D0467BE7023D624432E7084632
:1004C8000AE76444023842E7704700BF80B483B04B
:1004D80000AF78600B467B80054A7B681360044A4E
:1004E8007B88938000BF0C37BD465DF8047B70475E
:1004F8002402002080B483B000AF78600B467B8074
:10050800054A7B689360044A7B88938100BF0C3757
:10051800BD465DF8047B70472402002080B483B098
:1005280000AF78600B467B80054A7B681361044AFC
:100538007B88938200BF0C37BD465DF8047B70470B
:100548002402002080B483B000AF78600B467B8023
:10055800054A7B689361044A7B88938300BF0C3704
:10056800BD465DF8047B70472402002080B483B048
:1005780000AF78600B467B80054A7B681362044AAB
:100588007B88938400BF0C37BD465DF8047B7047B9
:100598002402002080B584B000AF0346FB7100231D
:1005A800FB7326E0174B9869164B998BFA79FB7BFE
:1005B800C3F1070342FA03F303F00103002B14BF4E
:1005C80001230023DBB21A4600F066FD0D4B1B6ABF
:1005D8000C4A918C0122184600F05EFD094B1B6AFB
:1005E800084A918C0022184600F056FDFB7B013327
:1005F800FB73FB7B072BD5D900BF00BF1037BD4667
:1006080080BD00BF2402002080B582B000AF034641
:100618000A46FB711346BB71BB79002B1CD11E4BDC
:100628001B691D4A918A0022184600F035FD1A4BB5
:100638009B68194A91890022184600F02DFDFB7924
:100648001846FFF7A7FF144B9B68134A91890122AC
:10065800184600F021FD1BE00F4B1B690E4A918ADA
:100668000122184600F018FD0B4B9B680A4A918935
:100678000022184600F010FDFB791846FFF78AFFA4
:10068800054B9B68044A91890122184600F004FD35
:1006980000BF0837BD4680BD2402002080B500AFEA
:1006A800174B1B68164A91880022184600F0F4FC84
:1006B800134B1B68124A91880122184600F0ECFC83
:1006C80000212120FFF7A0FF0021B820FFF79CFFA1
:1006D80000210420FFF798FF00211420FFF794FF62
:1006E80000212020FFF790FF00210C20FFF78CFF4E
:1006F80000F06CF8034B002283F8F82100BF80BD9E
:10070800240200202800002080B584B000AF0346F2
:10071800FB710023FB602DE01A4B93F8F83183F04E
:100728000103DBB2002B10D0FB79A3F1200216499C
:1007380013465B0013445B00CA18FB6813441B781C
:1007480001211846FFF760FF11E0FB79A3F12002B1
:100758000D4913465B0013445B00CA18FB68134439
:100768001B78DB43DBB201211846FFF74DFFFB681E
:100778000133FB60FB68052BCEDD00BF00BF1037DF
:10078800BD4680BD280000209819000880B582B0B9
:1007980000AF78600B46FB701346BB70BA78FB78E5
:1007A8001146184600F030F806E07B685A1C7A605B
:1007B8001B781846FFF7A8FF7B681B78002BF4D13D
:1007C80000BF00BF0837BD4680BD000080B582B0BD
:1007D80000AF00237B600BE001210020FFF714FF2E
:1007E800084A7B68134400221A707B6801337B60D7
:1007F8007B68B3F5FC7FEFDB00BF00BF0837BD4661
:1008080080BD00BF2800002080B582B000AF03463D
:100818000A46FB711346BB71FB7963F07F03DBB2B9
:1008280000211846FFF7F0FEBB7943F04003DBB226
:1008380000211846FFF7E8FE00BF0837BD4680BD17
:1008480080B500AF00F04CF900F024F800F080F813
:100858004FF480710D48FFF739FE80210B48FFF7F0
:1008680049FE40210948FFF759FE20210748FFF7B4
:1008780069FE08210548FFF779FEFFF70FFF002200
:1008880000210348FFF782FFFEE700BF0004024093
:100898008C19000880B594B000AF07F1200330220E
:1008A8000021184601F036F807F10C0300221A60FF
:1008B8005A609A60DA601A610023BB60224B1B6C95
:1008C800214A43F0805313641F4B1B6C03F0805381
:1008D800BB60BB6800237B601C4B1B681B4A43F44E
:1008E80040431360194B1B6803F440437B607B68EB
:1008F80002233B620123FB6210233B630023BB639B
:1009080007F12003184600F0E1FB0346002B01D055
:1009180000F052F80F23FB6000233B6100237B614A
:100928000023BB610023FB6107F10C03002118467B
:1009380000F044FE0346002B01D000F03DF800BF54
:100948005037BD4680BD00BF0038024000700040EF
:1009580080B586B000AF3B1D00221A605A609A60CD
:10096800DA601A6100233B60114B1B6B104A43F09D
:10097800020313630E4B1B6B03F002033B603B68DF
:10098800002248F2E8110B4800F086FB48F2E81311
:100998007B600123BB600023FB6000233B613B1DA0
:1009A8001946044800F0F4F900BF1837BD4680BD69
:1009B800003802400004024080B400AF72B600BFA5
:1009C800FEE7000080B483B000AF00237B60104BCB
:1009D8005B6C0F4A43F4804353640D4B5B6C03F428
:1009E80080437B607B6800233B60094B1B6C084A93
:1009F80043F080531364064B1B6C03F080533B6039
:100A08003B6800BF0C37BD465DF8047B704700BFEC
:100A18000038024080B400AFFEE780B400AFFEE7C4
:100A280080B400AFFEE780B400AFFEE780B400AF4B
:100A3800FEE780B400AF00BFBD465DF8047B704799
:100A480080B400AF00BFBD465DF8047B704780B43A
:100A580000AF00BFBD465DF8047B704780B500AFAE
:100A680000F090F800BF80BD80B400AF064BD3F80B
:100A78008830054A43F47003C2F8883000BFBD4689
:100A88005DF8047B704700BF00ED00E0DFF834D06C
:100A98000D480E490E4A002302E0D458C4500433CE
:100AA800C4188C42F9D30B4A0B4C002301E01360A5
:100AB8000432A242FBD3FFF7D7FF00F033FFFFF762
:100AC800BFFE704700000220000000200C0000203C
:100AD800F81B00080C00002050020020FEE7000070
:100AE80080B500AF0E4B1B680D4A43F400731360CA
:100AF8000B4B1B680A4A43F480631360084B1B685E
:100B0800074A43F480731360032000F00DF90F20A7
:100B180000F008F8FFF756FF0023184680BD00BF15
:100B2800003C024080B582B000AF7860124B1A6872
:100B3800124B1B7819464FF47A73B3FBF1F3B2FBEF
:100B4800F3F3184600F017F90346002B01D00123F0
:100B58000EE07B680F2B0AD8002279684FF0FF302F
:100B680000F0EDF8064A7B681360002300E00123DB
:100B780018460837BD4680BD000000200800002048
:100B88000400002080B400AF064B1B781A46064BC1
:100B98001B681344044A136000BFBD465DF8047B1C
:100BA800704700BF080000204C02002080B400AF4E
:100BB800034B1B681846BD465DF8047B704700BFB1
:100BC8004C02002080B485B000AF78607B6803F0E9
:100BD8000703FB600C4BDB68BB60BA684FF6FF038A
:100BE8001340BB60FB681A02BB68134343F0BF6342
:100BF80043F40033BB60044ABB68D36000BF1437BA
:100C0800BD465DF8047B704700ED00E080B400AF9E
:100C1800044BDB681B0A03F007031846BD465DF862
:100C2800047B704700ED00E080B483B000AF03465A
:100C38003960FB7197F90730002B0ADB3B68DAB2A1
:100C48000C4997F907301201D2B20B4483F80023FC
:100C58000AE03B68DAB20849FB7903F00F03043B6A
:100C68001201D2B20B441A7600BF0C37BD465DF8AC
:100C7800047B704700E100E000ED00E080B489B03B
:100C880000AFF860B9607A60FB6803F00703FB61A6
:100C9800FB69C3F10703042B28BF0423BB61FB696D
:100CA8000433062B02D9FB69033B00E000237B6178
:100CB8004FF0FF32BB6902FA03F3DA43BB681A400C
:100CC8007B699A404FF0FF317B6901FA03F3D943FE
:100CD8007B680B40134318462437BD465DF8047BF8
:100CE8007047000080B582B000AF78607B68013B38
:100CF800B3F1807F01D301230FE00A4A7B68013BEF
:100D080053600F214FF0FF30FFF78EFF054B002295
:100D18009A60044B07221A60002318460837BD461C
:100D280080BD00BF10E000E080B582B000AF786001
:100D38007868FFF747FF00BF0837BD4680BD80B51C
:100D480086B000AF0346B9607A60FB7300237B610D
:100D5800FFF75CFF78617A68B9687869FFF78EFFFA
:100D6800024697F90F3011461846FFF75DFF00BF9E
:100D78001837BD4680BD80B582B000AF786078680E
:100D8800FFF7B0FF034618460837BD4680BD000090
:100D980080B489B000AF7860396000237B6100239C
:100DA8003B610023BB610023FB6159E10122FB6920
:100DB80002FA03F37B613B681B687A6913403B6165
:100DC8003A697B699A4240F048813B685B6803F066
:100DD8000303012B05D03B685B6803F00303022B78
:100DE80030D17B689B68BB61FB695B00032202FA18
:100DF80003F3DB43BA691340BB613B68DA68FB69FC
:100E08005B0002FA03F3BA691343BB617B68BA69F2
:100E18009A607B685B68BB610122FB6902FA03F395
:100E2800DB43BA691340BB613B685B681B0903F08D
:100E38000102FB6902FA03F3BA691343BB617B68D9
:100E4800BA695A603B685B6803F00303032B17D049
:100E58007B68DB68BB61FB695B00032202FA03F372
:100E6800DB43BA691340BB613B689A68FB695B0066
:100E780002FA03F3BA691343BB617B68BA69DA60A3
:100E88003B685B6803F00303022B23D1FB69DA0894
:100E98007B68083253F82230BB61FB6903F0070313
:100EA8009B000F2202FA03F3DB43BA691340BB61CC
:100EB8003B681A69FB6903F007039B0002FA03F316
:100EC800BA691343BB61FB69DA087B680832B96900
:100ED80043F822107B681B68BB61FB695B00032237
:100EE80002FA03F3DB43BA691340BB613B685B68F2
:100EF80003F00302FB695B0002FA03F3BA691343C8
:100F0800BB617B68BA691A603B685B6803F440336D
:100F1800002B00F0A2800023FB60574B5B6C564A05
:100F280043F480435364544B5B6C03F48043FB608D
:100F3800FB68524AFB699B08023352F82330BB61B5
:100F4800FB6903F003039B000F2202FA03F3DB4360
:100F5800BA691340BB617B68494A934219D07B68E0
:100F6800484A934213D07B68474A93420DD07B6826
:100F7800464A934207D07B68454A934201D10423ED
:100F880008E0072306E0032304E0022302E001232C
:100F980000E00023FA6902F0030292009340BA6964
:100FA8001343BB613549FB699B080233BA6941F8B1
:100FB8002320384B9B68BB613B69DB43BA6913400C
:100FC800BB613B685B6803F48013002B03D0BA69EC
:100FD8003B691343BB612F4ABB6993602D4BDB68A8
:100FE800BB613B69DB43BA691340BB613B685B6823
:100FF80003F40013002B03D0BA693B691343BB61A8
:10100800244ABB69D360234B5B68BB613B69DB4304
:10101800BA691340BB613B685B6803F40033002B7B
:1010280003D0BA693B691343BB611A4ABB69536071
:10103800184B1B68BB613B69DB43BA691340BB6152
:101048003B685B6803F48033002B03D0BA693B69C3
:101058001343BB610F4ABB691360FB690133FB6132
:10106800FB690F2B7FF6A2AE00BF00BF2437BD4639
:101078005DF8047B704700BF00380240003801402B
:10108800000002400004024000080240000C024038
:1010980000100240003C014080B483B000AF78608B
:1010A8000B467B8013467B707B78002B03D07A88B5
:1010B8007B689A6103E07B881A047B689A6100BFA9
:1010C8000C37BD465DF8047B7047000080B586B0DC
:1010D80000AF78607B68002B01D1012367E27B6851
:1010E8001B6803F00103002B75D0884B9B6803F045
:1010F8000C03042B0CD0854B9B6803F00C03082BC6
:1011080012D1824B5B6803F48003B3F5800F0BD1D7
:101118007E4B1B6803F40033002B5BD07B685B6855
:10112800002B57D1012342E27B685B68B3F5803F0F
:1011380006D1764B1B68754A43F4803313601DE073
:101148007B685B68B3F5A02F0CD1704B1B686F4AA6
:1011580043F4802313606D4B1B686C4A43F480335F
:1011680013600BE0694B1B68684A23F480331360F3
:10117800664B1B68654A23F4802313607B685B68B1
:10118800002B13D0FFF712FD386108E0FFF70EFDC2
:1011980002463B69D31A642B01D9032307E25B4B50
:1011A8001B6803F40033002BF0D014E0FFF7FEFCBB
:1011B800386108E0FFF7FAFC02463B69D31A642B52
:1011C80001D90323F3E1514B1B6803F40033002BCF
:1011D800F0D100E000BF7B681B6803F00203002B1E
:1011E80063D04A4B9B6803F00C03002B0BD0474B92
:1011F8009B6803F00C03082B1CD1444B5B6803F479
:101208008003002B16D1414B1B6803F00203002B0F
:1012180005D07B68DB68012B01D00123C7E13B4B7C
:101228001B6823F0F8027B681B69DB00374913430E
:101238000B603AE07B68DB68002B20D0344B01223E
:101248001A60FFF7B3FC386108E0FFF7AFFC02460D
:101258003B69D31A022B01D90323A8E12B4B1B6846
:1012680003F00203002BF0D0284B1B6823F0F80290
:101278007B681B69DB00254913430B6015E0244B91
:1012880000221A60FFF792FC386108E0FFF78EFC35
:1012980002463B69D31A022B01D9032387E11B4B72
:1012A8001B6803F00203002BF0D17B681B6803F076
:1012B8000803002B36D07B685B69002B16D0154BD2
:1012C80001221A60FFF772FC386108E0FFF76EFC34
:1012D80002463B69D31A022B01D9032367E10B4B62
:1012E8005B6F03F00203002BF0D01BE0094B0022D8
:1012F8001A60FFF75BFC38610EE0FFF757FC024607
:101308003B69D31A022B07D9032350E10038024066
:1013180000004742800E4742884B5B6F03F0020390
:10132800002BEAD17B681B6803F00403002B00F054
:1013380097800023FB75814B1B6C03F08053002BB7
:101348000FD10023BB607D4B1B6C7C4A43F080535C
:1013580013647A4B1B6C03F08053BB60BB6801239A
:10136800FB75774B1B6803F48073002B18D1744B03
:101378001B68734A43F480731360FFF717FC3861E6
:1013880008E0FFF713FC02463B69D31A022B01D988
:1013980003230CE16A4B1B6803F48073002BF0D025
:1013A8007B689B68012B06D1644B1B6F634A43F033
:1013B800010313671CE07B689B68052B0CD15F4B0E
:1013C8001B6F5E4A43F0040313675C4B1B6F5B4A59
:1013D80043F0010313670BE0584B1B6F574A23F088
:1013E80001031367554B1B6F544A23F0040313671B
:1013F8007B689B68002B15D0FFF7D8FB38610AE0A3
:10140800FFF7D4FB02463B69D31A41F28832934274
:1014180001D90323CBE0494B1B6F03F00203002BD8
:10142800EED014E0FFF7C2FB38610AE0FFF7BEFB1D
:1014380002463B69D31A41F28832934201D9032309
:10144800B5E03E4B1B6F03F00203002BEED1FB7D92
:10145800012B05D1394B1B6C384A23F08053136498
:101468007B689B69002B00F0A180344B9B6803F0DC
:101478000C03082B5CD07B689B69022B41D1314B54
:1014880000221A60FFF792FB386108E0FFF78EFB35
:1014980002463B69D31A022B01D9032387E0274B65
:1014A8001B6803F00073002BF0D17B68DA697B6856
:1014B8001B6A1A437B685B6A9B011A437B689B6AB9
:1014C8005B08013B1B041A437B68DB6A1B061B494C
:1014D80013434B601B4B01221A60FFF767FB38610F
:1014E80008E0FFF763FB02463B69D31A022B01D9D8
:1014F80003235CE0114B1B6803F00073002BF0D052
:1015080054E0104B00221A60FFF750FB386108E0E6
:10151800FFF74CFB02463B69D31A022B01D9032380
:1015280045E0064B1B6803F00073002BF0D13DE04B
:101538007B689B69012B07D1012338E00038024002
:1015480000700040600047421B4B5B68FB607B6893
:101558009B69012B28D0FB6803F480027B68DB6958
:101568009A4221D1FB6803F03F027B681B6A9A42CA
:101578001AD1FA6847F6C07313407A68526A920122
:10158800934211D1FB6803F440327B689B6A5B0885
:10159800013B1B049A4207D1FB6803F070627B6829
:1015A800DB6A1B069A4201D0012300E0002318469B
:1015B8001837BD4680BD00BF0038024080B584B0F2
:1015C80000AF786039607B68002B01D10123CCE043
:1015D800684B1B6803F007033A689A420CD9654BBD
:1015E8003A68D2B21A70634B1B6803F007033A6873
:1015F8009A4201D00123B8E07B681B6803F002031C
:10160800002B20D07B681B6803F00403002B05D057
:10161800594B9B68584A43F4E05393607B681B68B6
:1016280003F00803002B05D0534B9B68524A43F440
:1016380060439360504B9B6823F0F0027B689B6883
:101648004D4913438B607B681B6803F00103002B33
:1016580044D07B685B68012B07D1474B1B6803F4B8
:101668000033002B19D101237FE07B685B68022BD4
:1016780003D07B685B68032B07D13F4B1B6803F0E3
:101688000073002B09D101236FE03B4B1B6803F06B
:101698000203002B01D1012367E0374B9B6823F03D
:1016A80003027B685B68344913438B60FFF77EFA5B
:1016B800F8600AE0FFF77AFA0246FB68D31A41F2AB
:1016C8008832934201D903234FE02B4B9B6803F0E8
:1016D8000C027B685B689B009A42EBD1254B1B6828
:1016E80003F007033A689A420CD2224B3A68D2B206
:1016F8001A70204B1B6803F007033A689A4201D01E
:10170800012332E07B681B6803F00403002B08D038
:10171800194B9B6823F4E0527B68DB681649134336
:101728008B607B681B6803F00803002B09D0124B01
:101738009B6823F460427B681B69DB000E491343F6
:101748008B6000F021F802460B4B9B681B0903F0E5
:101758000F030A49CB5C22FA03F3094A1360094BC9
:101768001B681846FFF7DEF9002318461037BD46F8
:1017780080BD00BF003C024000380240D81B000872
:1017880000000020040000202DE9B04F90B000AF09
:1017980000237B630023FB6300233B630023BB63BD
:1017A800594B9B6803F00C03082B0DD0082B00F253
:1017B800A180002B02D0042B03D09BE0534BBB63CA
:1017C8009BE0534BBB6398E04F4B5B6803F03F03D0
:1017D8007B634D4B5B6803F48003002B28D04A4B96
:1017E8005B689B0900223B627A623B6AC3F308008C
:1017F8000021474B03FB01F2002300FB03F31344D2
:10180800434AA0FB0212FA620A46BA62FA6A134411
:10181800FB627B6B0022BB61FA61D7E90623D7E93B
:101828000A01FEF7D5FC02460B461346FB6353E05C
:10183800354B5B689B0900223B617A613B69C3F3C6
:10184800080A4FF0000B52465B464FF000004FF07D
:101858000001590141EAD261500102460B46B2EB40
:101868000A0863EB0B094FF000024FF000034FEA40
:10187800891343EA98634FEA8812B2EB080463EBD2
:1018880009054FF000024FF00003EB0043EA5473E0
:10189800E20014461D4614EB0A033B6045EB0B03BC
:1018A8007B604FF000024FF00003D7E9004529465E
:1018B8008B02214643EA915321468A021046194673
:1018C8007B6B0022BB60FA60D7E90223FEF780FC3D
:1018D80002460B461346FB630B4B5B681B0C03F07D
:1018E800030301335B003B63FA6B3B6BB2FBF3F31F
:1018F800BB6302E0054BBB6300BFBB6B18464037B8
:10190800BD46BDE8B08F00BF003802400024F40097
:1019180040787D0102440346934200D1704703F8A2
:10192800011BF9E770B50D4D0D4C641BA410002682
:10193800A64209D10B4D0C4C00F018F8641BA410FA
:101948000026A64205D170BD55F8043B98470136DC
:10195800EEE755F8043B98470136F2E7F01B00081C
:10196800F01B0008F01B0008F41B0008F8B500BFC6
:10197800F8BC08BC9E467047F8B500BFF8BC08BC68
:041988009E467047C0
:10198C0048656C6C6F20576F726C6400000000002F
:10199C0000000000005F00000000070007000014BA
:1019AC007F147F1400242A7F2A12002313086462F8
:1019BC0000364955225000000503000000001C228F
:1019CC004100000041221C000014083E08140008CD
:1019DC00083E0808000050300000000808080808FD
:1019EC00000060600000002010080402003E514915
:1019FC00453E0000427F40000042615149460021B3
:101A0C0041454B31001814127F10002745454539CC
:101A1C00003C4A4949300001710905030036494927
:101A2C00493600064949291E0000363600000000E0
:101A3C00563600000008142241000014141414142B
:101A4C0000004122140800020151090600324979B4
:101A5C00413E007E1111117E007F49494936003EFE
:101A6C0041414122007F4141221C007F49494941AB
:101A7C00007F09090901003E4149497A007F0808A5
:101A8C00087F0000417F4100002040413F01007F62
:101A9C0008142241007F40404040007F020C027F2E
:101AAC00007F0408107F003E4141413E007F090940
:101ABC000906003E4151215E007F09192946004666
:101ACC00494949310001017F0101003F4040403F3D
:101ADC00001F2040201F003F4038403F0063140887
:101AEC001463000708700807006151494543000062
:101AFC007F414100000204081020000041417F009A
:101B0C000004020102040040404040400000010279
:101B1C000400002054545478007F48444438003862
:101B2C004444442000384444487F003854545418EA
:101B3C0000087E090102000C5252523E007F08043C
:101B4C0004780000447D4000002040443D00007FAC
:101B5C00102844000000417F4000007C04180478E9
:101B6C00007C08040478003844444438007C141485
:101B7C00140800081414187C007C0804040800489D
:101B8C005454542000043F444020003C4040207CEE
:101B9C00001C2040201C003C4030403C00442810DD
:101BAC002844000C5050503C004464544C440000F9
:101BBC00083641000000007F00000000413608009C
:101BCC000010080810080078464146780000000014
:0C1BDC00000000000102030406070809D5
:081BE80020E6FF7F0100000070
:041BF000BD0100082B
:041BF400990100084B
:0C1BF8000024F4001000000001000000B8
:0400000508000A9550
:00000001FF
