:020000040800F2
:1000000000000220E11B0008FD1A0008031B000885
:10001000091B00080F1B0008151B0008000000004A
:100020000000000000000000000000001B1B000892
:10003000291B000800000000371B0008451B0008B2
:10004000311C0008311C0008311C0008311C00085C
:10005000311C0008311C0008311C0008311C00084C
:10006000311C0008311C0008311C0008311C00083C
:10007000311C0008311C0008311C0008311C00082C
:10008000311C0008311C0008311C00080000000071
:10009000000000000000000000000000311C00080B
:1000A000311C0008311C0008311C0008311C0008FC
:1000B000311C0008311C0008311C0008311C0008EC
:1000C000311C0008311C0008311C0008311C0008DC
:1000D000311C0008311C0008311C00080000000021
:1000E000311C0008311C0008311C00080000000011
:1000F000000000000000000000000000311C0008AB
:1001000000000000311C0008311C0008311C0008F0
:1001100000000000000000000000000000000000DF
:10012000311C0008311C0008311C0008311C00087B
:10013000311C00080000000000000000000000006A
:10014000000000000000000000000000311C00085A
:10015000311C0008311C0008311C0008311C00084B
:10016000311C0008311C00080000000000000000E5
:10017000000000000000000000000000000000007F
:1001800000000000311C000800000000000000001A
:08019000311C0008311C0008BD
:1001A00010B5054C237833B9044B13B10448AFF3B1
:1001B00000800123237010BD5C00002000000000BF
:1001C0007045000808B5034B1BB103490348AFF362
:1001D000008008BD0000000060000020704500089D
:1001E00001F0FF01102A2BDB10F0070F08D010F8E8
:1001F000013B013A8B422DD010F0070F42B3F6D1EC
:10020000F0B441EA012141EA014122F007047FF004
:1002100000070023F0E80256083C85EA010586EA5B
:10022000010685FA47F5A3FA87F586FA47F6A5FA97
:1002300087F68EB9EED1F0BC01F0FF0102F00702A3
:1002400032B110F8013B013A83EA010313B1F8D14E
:100250000020704701387047002D06BF354603382F
:10026000073815F0010F07D1013015F4807F02BF68
:10027000013015F4C03F0130F0BC0138704700BFB9
:1002800081F0004102E000BF83F0004330B54FEA47
:1002900041044FEA430594EA050F08BF90EA020FB4
:1002A0001FBF54EA000C55EA020C7FEA645C7FEA47
:1002B000655C00F0E2804FEA5454D4EB5555B8BF6A
:1002C0006D420CDD2C4480EA020281EA030382EADB
:1002D000000083EA010180EA020281EA0303362D6D
:1002E00088BF30BD11F0004F4FEA01314FF4801C40
:1002F0004CEA113102D0404261EB410113F0004F52
:100300004FEA03334CEA133302D0524263EB430308
:1003100094EA050F00F0A780A4F10104D5F1200EA6
:100320000DDB02FA0EFC22FA05F2801841F1000101
:1003300003FA0EF2801843FA05F359410EE0A5F1D5
:1003400020050EF1200E012A03FA0EFC28BF4CF006
:10035000020C43FA05F3C01851EBE37101F00045BC
:1003600007D54FF0000EDCF1000C7EEB00006EEBC9
:100370000101B1F5801F1BD3B1F5001F0CD3490853
:100380005FEA30004FEA3C0C04F101044FEA4452AA
:1003900012F5800F80F09A80BCF1004F08BF5FEA31
:1003A000500C50F1000041EB045141EA050130BD11
:1003B0005FEA4C0C404141EB0101013C28BFB1F523
:1003C000801FE9D291F0000F04BF01460020B1FA6E
:1003D00081F308BF2033A3F10B03B3F120020CDA41
:1003E0000C3208DD02F1140CC2F10C0201FA0CF01F
:1003F00021FA02F10CE002F11402D8BFC2F1200C84
:1004000001FA02F120FA0CFCDCBF41EA0C01904039
:10041000E41AA2BF01EB0451294330BD6FEA040482
:100420001F3C1CDA0C340EDC04F11404C4F120026D
:1004300020FA04F001FA02F340EA030021FA04F37F
:1004400045EA030130BDC4F10C04C4F1200220FAD6
:1004500002F001FA04F340EA0300294630BD21FA14
:1004600004F0294630BD94F0000F83F4801306BFDA
:1004700081F480110134013D4EE77FEA645C18BFCE
:100480007FEA655C29D094EA050F08BF90EA020F65
:1004900005D054EA000C04BF1946104630BD91EA5D
:1004A000030F1EBF0021002030BD5FEA545C05D160
:1004B0004000494128BF41F0004130BD14F580049F
:1004C0003CBF01F5801130BD01F0004545F0FE4113
:1004D00041F470014FF0000030BD7FEA645C1ABF48
:1004E000194610467FEA655C1CBF0B46024650EA7F
:1004F000013406BF52EA033591EA030F41F40021AB
:1005000030BD00BF90F0000F04BF0021704730B530
:100510004FF4806404F132044FF000054FF0000105
:1005200050E700BF90F0000F04BF0021704730B5C6
:100530004FF4806404F1320410F0004548BF40429B
:100540004FF000013EE700BF42004FEAE2014FEAF0
:1005500031014FEA02701FBF12F07F4393F07F4FCB
:1005600081F06051704732F07F4208BF704793F0CE
:100570007F4F04BF41F40021704730B54FF46074E1
:1005800001F0004521F000411CE700BF50EA0102E4
:1005900008BF704730B54FF000050AE050EA01028D
:1005A00008BF704730B511F0004502D5404261EBFD
:1005B00041014FF4806404F132045FEA915C3FF43E
:1005C000D8AE4FF003025FEADC0C18BF03325FEADB
:1005D000DC0C18BF033202EBDC02C2F1200300FA8C
:1005E00003FC20FA02F001FA03FE40EA0E0021FAB1
:1005F00002F11444BDE600BF70B54FF0FF0C4CF49F
:10060000E06C1CEA11541DBF1CEA135594EA0C0F50
:1006100095EA0C0F00F0DEF82C4481EA030621EA8B
:100620004C5123EA4C5350EA013518BF52EA0335C6
:1006300041F4801143F4801338D0A0FB02CE4FF078
:100640000005E1FB02E506F00042E0FB03E54FF0A8
:100650000006E1FB03569CF0000F18BF4EF0010EA0
:10066000A4F1FF04B6F5007F64F5407404D25FEA9C
:100670004E0E6D4146EB060642EAC62141EA55514F
:100680004FEAC52040EA5E504FEACE2EB4F1FD0C91
:1006900088BFBCF5E06F1ED8BEF1004F08BF5FEA0F
:1006A000500E50F1000041EB045170BD06F00046C1
:1006B00046EA010140EA020081EA0301B4EB5C046E
:1006C000C2BFD4EB0C0541EA045170BD41F4801166
:1006D0004FF0000E013C00F3AB8014F1360FDEBF8B
:1006E000002001F0004170BDC4F10004203C35DA67
:1006F0000C341BDC04F11404C4F1200500FA05F3EA
:1007000020FA04F001FA05F240EA020001F000428A
:1007100021F0004110EBD37021FA04F642EB060100
:100720005EEA430E08BF20EAD37070BDC4F10C042A
:10073000C4F1200500FA04F320FA05F001FA04F2EE
:1007400040EA020001F0004110EBD37041F10001DA
:100750005EEA430E08BF20EAD37070BDC4F12005E5
:1007600000FA05F24EEA020E20FA04F301FA05F24D
:1007700043EA020321FA04F001F0004121FA04F2F5
:1007800020EA020000EBD3705EEA430E08BF20EAC5
:10079000D37070BD94F0000F0FD101F000464000FF
:1007A00041EB010111F4801F08BF013CF7D041EA81
:1007B000060195F0000F18BF704703F00046520085
:1007C00043EB030313F4801F08BF013DF7D043EA56
:1007D0000603704794EA0C0F0CEA135518BF95EA0C
:1007E0000C0F0CD050EA410618BF52EA4306D1D193
:1007F00081EA030101F000414FF0000070BD50EAB2
:10080000410606BF1046194652EA430619D094EA3B
:100810000C0F02D150EA013613D195EA0C0F05D125
:1008200052EA03361CBF104619460AD181EA030179
:1008300001F0004141F0FE4141F470014FF0000031
:1008400070BD41F0FE4141F4780170BD70B54FF0CC
:10085000FF0C4CF4E06C1CEA11541DBF1CEA13554C
:1008600094EA0C0F95EA0C0F00F0A7F8A4EB05042E
:1008700081EA030E52EA03354FEA013100F0888025
:100880004FEA03334FF0805545EA131343EA1263EE
:100890004FEA022245EA111545EA10654FEA0026A3
:1008A0000EF000419D4208BF964244F1FD0404F55C
:1008B000407402D25B084FEA3202B61A65EB0305B8
:1008C0005B084FEA32024FF480104FF4002CB6EB75
:1008D000020E75EB030E22BFB61A754640EA0C00F5
:1008E0005B084FEA3202B6EB020E75EB030E22BF35
:1008F000B61A754640EA5C005B084FEA3202B6EB76
:10090000020E75EB030E22BFB61A754640EA9C0034
:100910005B084FEA3202B6EB020E75EB030E22BF04
:10092000B61A754640EADC0055EA060E18D04FEAC2
:10093000051545EA16754FEA06164FEAC30343EA62
:1009400052734FEAC2025FEA1C1CC0D111F4801F2F
:100950000BD141EA00014FF000004FF0004CB6E728
:1009600011F4801F04BF01430020B4F1FD0C88BFC7
:10097000BCF5E06F3FF6AFAEB5EB030C04BFB6EBD2
:10098000020C5FEA500C50F1000041EB045170BDC5
:100990000EF0004E4EEA113114EB5C04C2BFD4EBF2
:1009A0000C0541EA045170BD41F480114FF0000E76
:1009B000013C90E645EA060E8DE60CEA135594EAF2
:1009C0000C0F08BF95EA0C0F3FF43BAF94EA0C0FF5
:1009D0000AD150EA01347FF434AF95EA0C0F7FF46A
:1009E00025AF104619462CE795EA0C0F06D152EABE
:1009F00003353FF4FDAE1046194622E750EA4106A2
:100A000018BF52EA43067FF4C5AE50EA41047FF4B2
:100A10000DAF52EA43057FF4EBAE12E74FEA410215
:100A200012F5001215D211D56FF47873B3EB625240
:100A300012D94FEAC12343F0004343EA505311F067
:100A4000004F23FA02F018BF404270474FF00000F9
:100A5000704750EA013005D111F0004008BF6FF037
:100A6000004070474FF00000704700BF53B94AB9CB
:100A7000002908BF00281CBF4FF0FF314FF0FF30A6
:100A800000F070B9ADF1080C6DE904CE00F006F885
:100A9000DDF804E0DDE9022304B070472DE9F047FA
:100AA000089E0D4604460F46002B4AD18A429446C2
:100AB00065D9B2FA82F343B102FA03FCC3F1200212
:100AC0009F4020FA02F217439C404FEA1C4E1FFA47
:100AD0008CF5B7FBFEF1220C0EFB117742EA0742C0
:100AE00001FB05F090420AD91CEB020201F1FF372D
:100AF00080F01C81904240F2198102396244121A3E
:100B0000A4B2B2FBFEF00EFB102244EA024400FB4A
:100B100005F5A5420AD91CEB040400F1FF3280F070
:100B20000781A54240F204816444023840EA014052
:100B3000641B00211EB1DC400023C6E90043BDE870
:100B4000F0878B4208D9002E00F0ED800021C6E925
:100B500000050846BDE8F087B3FA83F1002949D1C2
:100B6000AB4202D3824200F2F880841A65EB0302A2
:100B700001201746002EE2D0C6E90047DFE702B9A0
:100B8000FFDEB2FA82F3002B40F090808A1A4FEA1F
:100B90001C471FFA8CFE0121B2FBF7F507FB15205D
:100BA000220C42EA00420EFB05F0904208D91CEBF1
:100BB000020205F1FF3802D2904200F2CB80454696
:100BC000121AA4B2B2FBF7F007FB102244EA024467
:100BD0000EFB00FEA64508D91CEB040400F1FF3211
:100BE00002D2A64500F2BB801046A4EB0E0440EAF8
:100BF00005409FE7C1F120078B4022FA07FC4CEA31
:100C0000030C05FA01F420FA07F3FD404FEA1C49F2
:100C10002343B5FBF9F81FFA8CFE09FB18551C0C91
:100C200044EA054408FB0EF5A54202FA01F200FA77
:100C300001F00BD91CEB040408F1FF3A80F0888026
:100C4000A54240F28580A8F102086444641B9DB26D
:100C5000B4FBF9F309FB134445EA044403FB0EFE1D
:100C6000A64508D91CEB040403F1FF356CD2A64558
:100C70006AD9023B644443EA0843A3FB0295A4EB10
:100C80000E04AC42C846AE4656D353D056B1B0EB74
:100C9000080264EB0E0404FA07F7CA40CC4017437D
:100CA000C6E9007418460021BDE8F087C3F12001B1
:100CB00002FA03FC20FA01F225FA01F19D402A43D1
:100CC0004FEA1C471FFA8CFEB1FBF7F007FB10152B
:100CD000110C41EA054100FB0EF58D4204FA03F4C4
:100CE00008D91CEB010100F1FF382FD28D422DD91C
:100CF00002386144491B92B2B1FBF7F507FB1511AD
:100D000042EA014205FB0EF1914208D91CEB0202B6
:100D100005F1FF3816D2914214D9023D6244521AAD
:100D200045EA004138E73146304608E73946E6E60D
:100D30001046FBE64845A9D2B9EB020865EB0C0E5C
:100D4000013BA3E74546EAE72B4694E74046D1E757
:100D5000D0467BE7023D624432E708460AE7644436
:100D6000023842E7704700BF80B483B000AF7860BC
:100D70000B467B80054A7B681360044A7B8893801E
:100D800000BF0C37BD465DF8047B7047740200203D
:100D900080B483B000AF78600B467B80054A7B68E7
:100DA0009360044A7B88938100BF0C37BD465DF891
:100DB000047B70477402002080B483B000AF786079
:100DC0000B467B80054A7B681361044A7B889382CB
:100DD00000BF0C37BD465DF8047B704774020020ED
:100DE00080B483B000AF78600B467B80054A7B6897
:100DF0009361044A7B88938300BF0C37BD465DF83E
:100E0000047B70477402002080B483B000AF786028
:100E10000B467B80054A7B681362044A7B88938477
:100E200000BF0C37BD465DF8047B7047740200209C
:100E300080B584B000AF0346FB710023FB7326E04E
:100E4000174B9869164B998BFA79FB7BC3F1070313
:100E500042FA03F303F00103002B14BF0123002324
:100E6000DBB21A4601F034FC0D4B1B6A0C4A918C24
:100E70000122184601F02CFC094B1B6A084A918C90
:100E80000022184601F024FCFB7B0133FB73FB7B43
:100E9000072BD5D900BF00BF1037BD4680BD00BFAE
:100EA0007402002080B582B000AF03460A46FB7191
:100EB0001346BB71BB79002B1CD11E4B1B691D4A0D
:100EC000918A0022184601F003FC1A4B9B68194ACC
:100ED00091890022184601F0FBFBFB791846FFF7C9
:100EE000A7FF144B9B68134A91890122184601F011
:100EF000EFFB1BE00F4B1B690E4A918A012218463B
:100F000001F0E6FB0B4B9B680A4A918900221846C8
:100F100001F0DEFBFB791846FFF78AFF054B9B6863
:100F2000044A91890122184601F0D2FB00BF08371C
:100F3000BD4680BD7402002080B500AF174B1B6812
:100F4000164A91880022184601F0C2FB134B1B6819
:100F5000124A91880122184601F0BAFB0021212093
:100F6000FFF7A0FF0021B820FFF79CFF002104201D
:100F7000FFF798FF00211420FFF794FF00212020A5
:100F8000FFF790FF00210C20FFF78CFF00F06CF8BA
:100F9000034B002283F8F82100BF80BD74020020BB
:100FA0007800002080B584B000AF0346FB710023B9
:100FB000FB602DE01A4B93F8F83183F00103DBB2AC
:100FC000002B10D0FB79A3F12002164913465B00D9
:100FD00013445B00CA18FB6813441B7801211846B0
:100FE000FFF760FF11E0FB79A3F120020D491346E2
:100FF0005B0013445B00CA18FB6813441B78DB4397
:10100000DBB201211846FFF74DFFFB680133FB609F
:10101000FB68052BCEDD00BF00BF1037BD4680BD8D
:1010200078000020A045000880B582B000AF78604D
:101030000B46FB701346BB70BA78FB781146184616
:1010400000F030F806E07B685A1C7A601B7818467E
:10105000FFF7A8FF7B681B78002BF4D100BF00BF0F
:101060000837BD4680BD000080B582B000AF0023C8
:101070007B600BE001210020FFF714FF084A7B682A
:10108000134400221A707B6801337B607B68B3F5E0
:10109000FC7FEFDB00BF00BF0837BD4680BD00BF4F
:1010A0007800002080B582B000AF03460A46FB718D
:1010B0001346BB71FB7963F07F03DBB20021184656
:1010C000FFF7F0FEBB7943F04003DBB20021184686
:1010D000FFF7E8FE00BF0837BD4680BD80B483B08F
:1010E00000AF0346FB710B46BB7113467B71FB7966
:1010F000532B01D95323FB71BB792F2B01D92F23FC
:10110000BB717B79002B1DD0FA79BB79DB08D8B293
:101110000146542301FB03F313441D4AD35C5AB226
:10112000BB7903F00703012101FA03F35BB2134318
:1011300059B2FA79542300FB03F31344C9B2144A99
:10114000D1541EE0FA79BB79DB08D8B201465423AA
:1011500001FB03F313440E4AD35C5AB2BB7903F08C
:101160000703012101FA03F35BB2DB435BB21340D7
:1011700059B2FA79542300FB03F31344C9B2044A69
:10118000D15400BF0C37BD465DF8047B704700BFEB
:101190007800002080B489B000AFF860B9607A6050
:1011A000FB68002B3ADBFB68532B37DCBB68002B5A
:1011B00034DBBB682F2B31DC0023FB612AE0BB68EA
:1011C000002B00DA0733DB101A46542302FB03F32B
:1011D000FA681344BB61BB685A4203F0070302F08C
:1011E000070258BF53427B61BA69FB6913440E4A38
:1011F000D35C5AB201217B6901FA03F35BB213435A
:1012000059B2BA69FB691344C9B2074AD154FB69A0
:101210000133FB61FA697B689A42D0DB00BF243757
:10122000BD465DF8047B704778000020B0B590B0F3
:1012300000AFF860B9607A603B607A68FB68D31AE7
:10124000002B0BDAFB68FB617B68FB60FB697B6052
:10125000BB68FB613B68BB60FB693B603A68BB688D
:10126000D31A002B0BDAFB68FB617B68FB60FB6920
:101270007B60BB68FB613B68BB60FB693B60BA6835
:101280003B689A4212D1FA687B689A4205DDFB6896
:10129000FB617B68FB60FB697B607A68FB68D31A43
:1012A0001A46B968F868FFF775FF1BE1FA687B68B2
:1012B0009A4212D1BA683B689A4205DDBB68FB616D
:1012C0003B68BB60FB693B603A68BB68D31A1A464F
:1012D000B968F868FFF75EFF04E17A68FB68D31A23
:1012E00083EAE372A2EBE3723968BB68CB1A002B86
:1012F000B8BF5B429A4278DD3A68BB68D31A184699
:10130000FFF710F904460D467A68FB68D31A1846B1
:10131000FFF708F902460B4620462946FFF796FAE2
:1013200002460B46C7E90423B868FFF7FBF80246FC
:101330000B46C7E90C23FA687B689A422ADDFB68F2
:10134000FB6222E0FB6ADCB24FF00002674BD7E998
:101350000C01FEF79BFF02460B4610461946FFF7AD
:101360005DFB0346DBB2012219462046FFF7B6FEBD
:10137000D7E90423D7E90C01FEF786FF02460B46A6
:10138000C7E90C23FB6A013BFB62FA6A7B689A425D
:10139000D8DAA7E0FB68BB6222E0BB6ADCB24FF0A0
:1013A0000002524BD7E90C01FEF770FF02460B46D4
:1013B00010461946FFF732FB0346DBB201221946FD
:1013C0002046FFF78BFED7E90423D7E90C01FEF78F
:1013D0005DFF02460B46C7E90C23BB6A0133BB62C3
:1013E000BA6A7B689A42D8DD7CE07A68FB68D31AD7
:1013F00007EE903AB8EEE77A3A68BB68D31A07EE80
:10140000903AF8EEE77AC7EE276A16EE900AFFF7F1
:101410009BF802460B46C7E90423FB6807EE903AA7
:10142000F8EEE77A17EE900AFFF78EF802460B46C1
:10143000C7E90E23BA683B689A422ADD3B6801334C
:101440007B6221E04FF00002284BD7E90E01FEF746
:101450001DFF02460B4610461946FFF7DFFA03460A
:10146000DBB27A6AD1B201221846FFF737FED7E91C
:101470000423D7E90E01FEF709FF02460B46C7E930
:101480000E237B6A013B7B627A6ABB689A42D9DC95
:1014900028E0BB683B6221E04FF00002134BD7E924
:1014A0000E01FEF7F3FE02460B4610461946FFF703
:1014B000B5FA0346DBB23A6AD1B201221846FFF709
:1014C0000DFED7E90423D7E90E01FEF7DFFE024641
:1014D0000B46C7E90E233B6A01333B623A683B6A1D
:1014E0009A42D9DA00BF4037BD46B0BD0000E03FA8
:1014F00090B583B000AF0446084611461A4623460D
:10150000FB710346BB710B467B7113463B71F87947
:10151000B9797A79BB79FFF789FEF879B979FA79DF
:101520003B79FFF783FE7879B9797A793B79FFF7D0
:101530007DFEF87939797A793B79FFF777FE00BF3C
:101540000C37BD4690BD000080B584B000AF00F000
:1015500071FB00F071F800F0BFF94FF48071304872
:10156000FFF702FC80212E48FFF712FC40212C4897
:10157000FFF722FC20212A48FFF732FC08212848E7
:10158000FFF742FCFFF7D8FC002200212548FFF7B7
:101590004BFD00F051F800F09FF900F0ABF800F0BF
:1015A000FBF80021204801F079FD4FF480711C48C0
:1015B000FFF7DAFB80211A48FFF7EAFB40211848C1
:1015C000FFF7FAFB20211648FFF70AFC0821144810
:1015D000FFF71AFCFFF7B0FC012201211148FFF7C9
:1015E00023FD40F2DD43FB81104AFB895363FA89F6
:1015F0003B1D0F49184602F017FB542300223021EF
:101600000020FFF775FF002201210A48FFF70CFDBB
:101610003B1D082201211846FFF706FDE1E700BF48
:101620000004024088450008E40200200000014058
:10163000944500089845000880B594B000AF07F1C4
:10164000200330220021184602F00EFB07F10C03A4
:1016500000221A605A609A60DA601A610023BB6047
:10166000224B1B6C214A43F0805313641F4B1B6CAD
:1016700003F08053BB60BB6800237B601C4B1B687E
:101680001B4A43F440431360194B1B6803F4404367
:101690007B607B6802233B620123FB6210233B6378
:1016A0000023BB6307F12003184601F02BF8034623
:1016B000002B01D000F054F90F23FB6000233B61A5
:1016C00000237B610023BB610023FB6107F10C0356
:1016D0000021184601F08EFA0346002B01D000F0DD
:1016E0003FF900BF5037BD4680BD00BF0038024003
:1016F0000070004080B584B000AF3B4600221A6005
:101700005A609A60DA60214B214A1A601F4B00220E
:101710005A601E4B00229A601C4B00221A611B4B20
:1017200000221A76194B002283F82020174B002242
:10173000DA62164B174A9A62144B0022DA60134B96
:101740000122DA61114B002283F830200F4B012275
:101750005A610E4800F0E0FA0346002B01D000F079
:10176000FFF808233B6001237B600023BB603B46FE
:101770001946064800F014FB0346002B01D000F088
:10178000EFF800BF1037BD4680BD00BF9C020020AF
:10179000002001400100000F80B596B000AF07F1B6
:1017A000480300221A605A609A60DA6007F1400329
:1017B00000221A605A6007F1240300221A605A605E
:1017C0009A60DA601A615A619A613B1D20220021F9
:1017D000184602F049FA3E4B3E4A1A603C4B0F2233
:1017E0005A603B4B00229A60394B40F2F312DA60A8
:1017F000374B00221A61364B00225A61344B0022CB
:101800009A61334801F0A2FB0346002B01D000F09F
:10181000A7F84FF48053BB6407F1480319462C48DE
:1018200001F0AEFD0346002B01D000F099F82848E6
:1018300001F0DBFB0346002B01D000F091F8002300
:101840003B6400237B6407F140031946204802F003
:101850002BF90346002B01D000F082F860237B6255
:101860000023BB620023FB6200233B6300237B63F6
:101870000023BB630023FB6307F124030022194606
:10188000134801F0BBFC0346002B01D000F068F8C0
:1018900000237B600023BB600023FB6000233B61CF
:1018A00000237B614FF40053BB6100233B623B1D6F
:1018B0001946074802F066F90346002B01D000F0F4
:1018C0004FF8034800F0E0F800BF5837BD4680BD30
:1018D000E40200200000014080B588B000AF07F1AD
:1018E0000C0300221A605A609A60DA601A610023C1
:1018F000BB60194B1B6B184A43F002031363164B72
:101900001B6B03F00203BB60BB6800237B60124BC0
:101910001B6B114A43F0010313630F4B1B6B03F066
:1019200001037B607B68002248F2E8110B4800F05D
:10193000CFFE48F2E813FB6001233B6100237B618B
:101940000023BB6107F10C031946044800F03CFD7D
:1019500000BF2037BD4680BD003802400004024071
:1019600080B400AF72B600BFFEE7000080B483B061
:1019700000AF00237B60104B5B6C0F4A43F4804345
:1019800053640D4B5B6C03F480437B607B680023E6
:101990003B60094B1B6C084A43F080531364064BB1
:1019A0001B6C03F080533B603B6800BF0C37BD46A7
:1019B0005DF8047B704700BF0038024080B58AB0F4
:1019C00000AF786007F1140300221A605A609A6031
:1019D000DA601A617B681B68174A934227D100239B
:1019E0003B61164B5B6C154A43F480735364134B95
:1019F0005B6C03F480733B613B690023FB600F4B1E
:101A00001B6B0E4A43F0020313630C4B1B6B03F07A
:101A10000203FB60FB6801237B610323BB6100239E
:101A2000FB6107F114031946054800F0CDFC00BF27
:101A30002837BD4680BD00BF00200140003802406D
:101A40000004024080B485B000AF78607B681B68FA
:101A50000B4A93420DD10023FB600A4B5B6C094A91
:101A600043F001035364074B5B6C03F00103FB601D
:101A7000FB6800BF1437BD465DF8047B704700BFAC
:101A8000000001400038024080B588B000AF7860A7
:101A900007F10C0300221A605A609A60DA601A613A
:101AA0007B681B68124A93421ED10023BB60114B16
:101AB0001B6B104A43F0010313630E4B1B6B03F0C7
:101AC0000103BB60BB684FF48073FB6002233B6182
:101AD00000237B610023BB610123FB6107F10C0341
:101AE0001946054800F070FC00BF2037BD4680BD98
:101AF00000000140003802400000024080B400AF06
:101B0000FEE780B400AFFEE780B400AFFEE780B42C
:101B100000AFFEE780B400AFFEE780B400AF00BFC7
:101B2000BD465DF8047B704780B400AF00BFBD4682
:101B30005DF8047B704780B400AF00BFBD465DF820
:101B4000047B704780B500AF00F0C6F800BF80BDD1
:101B500080B586B000AF7860144A154BD31A7B610C
:101B60007B693B61134B1B68002B02D1114B124A5E
:101B70001A60104B1A687B6813443A699A4207D27C
:101B800002F07AF803460C221A604FF0FF3309E0A6
:101B9000084B1B68FB60074B1A687B681344054AB7
:101BA0001360FB6818461837BD4680BD0000022050
:101BB000000400002C0300208004002080B400AF4B
:101BC000064BD3F88830054A43F47003C2F88830D6
:101BD00000BFBD465DF8047B704700BF00ED00E02C
:101BE000DFF834D00D480E490E4A002302E0D458E5
:101BF000C4500433C4188C42F9D30B4A0B4C002355
:101C000001E013600432A242FBD3FFF7D7FF02F0DA
:101C100039F8FFF799FC704700000220000000200F
:101C20005C000020344800085C0000207C04002098
:101C3000FEE7000080B500AF0E4B1B680D4A43F471
:101C4000007313600B4B1B680A4A43F480631360F4
:101C5000084B1B68074A43F480731360032000F0AD
:101C60007FFB0F2000F008F8FFF780FE00231846E6
:101C700080BD00BF003C024080B582B000AF7860FC
:101C8000124B1A68124B1B7819464FF47A73B3FB48
:101C9000F1F3B2FBF3F3184600F089FB0346002B87
:101CA00001D001230EE07B680F2B0AD8002279684F
:101CB0004FF0FF3000F05FFB064A7B6813600023A3
:101CC00000E0012318460837BD4680BD0000002013
:101CD000080000200400002080B400AF064B1B78F1
:101CE0001A46064B1B681344044A136000BFBD46E6
:101CF0005DF8047B704700BF08000020300300201F
:101D000080B400AF034B1B681846BD465DF8047BEA
:101D1000704700BF3003002080B584B000AF78600A
:101D20000023FB737B68002B01D1012333E07B6828
:101D30001B6C002B09D17868FFF740FE7B680022FE
:101D40005A647B68002283F83C207B681B6C03F09C
:101D50001003002B18D17B681B6C23F4885323F0ED
:101D6000020343F002027B681A64786800F04AF9C3
:101D70007B6800225A647B681B6C23F0030343F0EA
:101D800001027B681A6401E00123FB737B68002277
:101D900083F83C20FB7B18461037BD4680BD000011
:101DA00080B485B000AF786039600023BB607B6889
:101DB00093F83C30012B01D1022313E17B6801220F
:101DC00083F83C203B681B68092B25D97B681B687E
:101DD000D9683B681B689BB21A4613465B001344E4
:101DE0001E3B072202FA03F3DA437B681B680A40B2
:101DF000DA607B681B68D9683B689A683B681B6837
:101E00009BB2184603465B0003441E3B9A407B6826
:101E10001B680A43DA6022E07B681B6819693B682B
:101E20001B689BB21A4613465B001344072202FA52
:101E300003F3DA437B681B680A401A617B681B68FE
:101E400019693B689A683B681B689BB21846034651
:101E50005B0003449A407B681B680A431A613B6835
:101E60005B68062B24D87B681B68596B3B685A68F3
:101E700013469B001344053B1F2202FA03F3DA4387
:101E80007B681B680A405A637B681B68596B3B6818
:101E90001B689BB218463B685A6813469B00134464
:101EA000053B00FA03F27B681B680A435A634CE067
:101EB0003B685B680C2B24D87B681B68196B3B68FC
:101EC0005A6813469B001344233B1F2202FA03F374
:101ED000DA437B681B680A401A637B681B68196BCE
:101EE0003B681B689BB218463B685A6813469B00C8
:101EF0001344233B00FA03F27B681B680A431A630E
:101F000023E07B681B68D96A3B685A6813469B00CC
:101F10001344413B1F2202FA03F3DA437B681B6838
:101F20000A40DA627B681B68D96A3B681B689BB20F
:101F300018463B685A6813469B001344413B00FA1D
:101F400003F27B681B680A43DA62294BFB607B68FB
:101F50001B68284A93420FD13B681B68122B0BD198
:101F6000FB685B6823F40002FB685A60FB685B68EF
:101F700043F48002FB685A607B681B681D4A9342E9
:101F80002BD13B681B681C4A934203D03B681B68FB
:101F9000112B22D1FB685B6823F48002FB685A6036
:101FA000FB685B6843F40002FB685A603B681B688F
:101FB000114A934211D1114B1B68114AA2FB032312
:101FC0009A0C13469B0013445B00BB6002E0BB68A5
:101FD000013BBB60BB68002BF9D17B68002283F812
:101FE0003C20002318461437BD465DF8047B70473B
:101FF00000230140002001401200001000000020DA
:1020000083DE1B4380B485B000AF7860794BFB6002
:10201000FB685B6823F44032FB685A60FB685A68CF
:102020007B685B681A43FB685A607B681B685A6868
:102030007B681B6822F480725A607B681B68596851
:102040007B681B691A027B681B680A435A607B68BD
:102050001B685A687B681B6822F040725A607B6874
:102060001B6859687B689A687B681B680A435A60DA
:102070007B681B689A687B681B6822F400629A6020
:102080007B681B6899687B68DA687B681B680A4311
:102090009A607B689B6A584A934222D07B681B688F
:1020A0009A687B681B6822F070629A607B681B6884
:1020B00099687B689A6A7B681B680A439A607B68A8
:1020C0001B689A687B681B6822F040529A607B68A4
:1020D0001B6899687B68DA6A7B681B680A439A60A8
:1020E0000FE07B681B689A687B681B6822F070624F
:1020F0009A607B681B689A687B681B6822F0405274
:102100009A607B681B689A687B681B6822F00202F1
:102110009A607B681B6899687B681B7E5A007B68A5
:102120001B680A439A607B6893F82030002B1BD011
:102130007B681B685A687B681B6842F400625A60BF
:102140007B681B685A687B681B6822F460425A608F
:102150007B681B6859687B685B6A013B5A037B6834
:102160001B680A435A6007E07B681B685A687B68F3
:102170001B6822F400625A607B681B68DA6A7B681D
:102180001B6822F47002DA627B681B68D96A7B687C
:10219000DB69013B1A057B681B680A43DA627B68CE
:1021A0001B689A687B681B6822F400729A607B68DF
:1021B0001B6899687B6893F830305A027B681B680B
:1021C0000A439A607B681B689A687B681B6822F4E4
:1021D00080629A607B681B6899687B685B699A0279
:1021E0007B681B680A439A6000BF1437BD465DF8E0
:1021F000047B7047002301400100000F80B485B0CC
:1022000000AF78607B6803F00703FB600C4BDB6872
:10221000BB60BA684FF6FF031340BB60FB681A024D
:10222000BB68134343F0BF6343F40033BB60044A0D
:10223000BB68D36000BF1437BD465DF8047B7047B0
:1022400000ED00E080B400AF044BDB681B0A03F034
:1022500007031846BD465DF8047B704700ED00E0BB
:1022600080B483B000AF03463960FB7197F9073043
:10227000002B0ADB3B68DAB20C4997F907301201F0
:10228000D2B20B4483F800230AE03B68DAB2084973
:10229000FB7903F00F03043B1201D2B20B441A7610
:1022A00000BF0C37BD465DF8047B704700E100E0DD
:1022B00000ED00E080B489B000AFF860B9607A60EA
:1022C000FB6803F00703FB61FB69C3F10703042B01
:1022D00028BF0423BB61FB690433062B02D9FB69C9
:1022E000033B00E000237B614FF0FF32BB6902FA41
:1022F00003F3DA43BB681A407B699A404FF0FF3121
:102300007B6901FA03F3D9437B680B4013431846FA
:102310002437BD465DF8047B7047000080B582B06D
:1023200000AF78607B68013BB3F1807F01D301236C
:102330000FE00A4A7B68013B53600F214FF0FF30EA
:10234000FFF78EFF054B00229A60044B07221A60AC
:10235000002318460837BD4680BD00BF10E000E0EE
:1023600080B582B000AF78607868FFF747FF00BFA4
:102370000837BD4680BD80B586B000AF0346B96062
:102380007A60FB7300237B61FFF75CFF78617A68FA
:10239000B9687869FFF78EFF024697F90F3011464A
:1023A0001846FFF75DFF00BF1837BD4680BD80B5FA
:1023B00082B000AF78607868FFF7B0FF0346184638
:1023C0000837BD4680BD000080B489B000AF78609A
:1023D000396000237B6100233B610023BB61002344
:1023E000FB6159E10122FB6902FA03F37B613B685F
:1023F0001B687A6913403B613A697B699A4240F0F5
:1024000048813B685B6803F00303012B05D03B6800
:102410005B6803F00303022B30D17B689B68BB61D0
:10242000FB695B00032202FA03F3DB43BA69134042
:10243000BB613B68DA68FB695B0002FA03F3BA69C7
:102440001343BB617B68BA699A607B685B68BB6158
:102450000122FB6902FA03F3DB43BA691340BB6153
:102460003B685B681B0903F00102FB6902FA03F396
:10247000BA691343BB617B68BA695A603B685B68A1
:1024800003F00303032B17D07B68DB68BB61FB6998
:102490005B00032202FA03F3DB43BA691340BB611A
:1024A0003B689A68FB695B0002FA03F3BA6913435D
:1024B000BB617B68BA69DA603B685B6803F0030361
:1024C000022B23D1FB69DA087B68083253F82230EB
:1024D000BB61FB6903F007039B000F2202FA03F3C1
:1024E000DB43BA691340BB613B681A69FB6903F0BF
:1024F00007039B0002FA03F3BA691343BB61FB694C
:10250000DA087B680832B96943F822107B681B68D7
:10251000BB61FB695B00032202FA03F3DB43BA6988
:102520001340BB613B685B6803F00302FB695B001F
:1025300002FA03F3BA691343BB617B68BA691A6094
:102540003B685B6803F44033002B00F0A28000235B
:10255000FB60574B5B6C564A43F480435364544BC7
:102560005B6C03F48043FB60FB68524AFB699B0889
:10257000023352F82330BB61FB6903F003039B0075
:102580000F2202FA03F3DB43BA691340BB617B6895
:10259000494A934219D07B68484A934213D07B68DA
:1025A000474A93420DD07B68464A934207D07B68E6
:1025B000454A934201D1042308E0072306E00323A0
:1025C00004E0022302E0012300E00023FA6902F0A4
:1025D000030292009340BA691343BB613549FB691A
:1025E0009B080233BA6941F82320384B9B68BB61D2
:1025F0003B69DB43BA691340BB613B685B6803F42A
:102600008013002B03D0BA693B691343BB612F4A87
:10261000BB6993602D4BDB68BB613B69DB43BA69E7
:102620001340BB613B685B6803F40013002B03D0CD
:10263000BA693B691343BB61244ABB69D360234B2E
:102640005B68BB613B69DB43BA691340BB613B68B4
:102650005B6803F40033002B03D0BA693B69134372
:10266000BB611A4ABB695360184B1B68BB613B696D
:10267000DB43BA691340BB613B685B6803F480339A
:10268000002B03D0BA693B691343BB610F4ABB6996
:102690001360FB690133FB61FB690F2B7FF6A2AE70
:1026A00000BF00BF2437BD465DF8047B704700BF04
:1026B000003802400038014000000240000402409F
:1026C00000080240000C024000100240003C0140A3
:1026D00080B483B000AF78600B467B8013467B707C
:1026E0007B78002B03D07A887B689A6103E07B8833
:1026F0001A047B689A6100BF0C37BD465DF8047B05
:102700007047000080B586B000AF78607B68002B12
:1027100001D1012367E27B681B6803F00103002BF2
:1027200075D0884B9B6803F00C03042B0CD0854BB1
:102730009B6803F00C03082B12D1824B5B6803F4F7
:102740008003B3F5800F0BD17E4B1B6803F400337D
:10275000002B5BD07B685B68002B57D1012342E2E2
:102760007B685B68B3F5803F06D1764B1B68754A82
:1027700043F4803313601DE07B685B68B3F5A02FE2
:102780000CD1704B1B686F4A43F4802313606D4B70
:102790001B686C4A43F4803313600BE0694B1B6881
:1027A000684A23F480331360664B1B68654A23F440
:1027B000802313607B685B68002B13D0FFF7A0FABF
:1027C000386108E0FFF79CFA02463B69D31A642B94
:1027D00001D9032307E25B4B1B6803F40033002B92
:1027E000F0D014E0FFF78CFA386108E0FFF788FAC0
:1027F00002463B69D31A642B01D90323F3E1514B01
:102800001B6803F40033002BF0D100E000BF7B68AD
:102810001B6803F00203002B63D04A4B9B6803F054
:102820000C03002B0BD0474B9B6803F00C03082BC9
:102830001CD1444B5B6803F48003002B16D1414B41
:102840001B6803F00203002B05D07B68DB68012BBB
:1028500001D00123C7E13B4B1B6823F0F8027B68E2
:102860001B69DB00374913430B603AE07B68DB6888
:10287000002B20D0344B01221A60FFF741FA386157
:1028800008E0FFF73DFA02463B69D31A022B01D953
:102890000323A8E12B4B1B6803F00203002BF0D0AD
:1028A000284B1B6823F0F8027B681B69DB00254975
:1028B00013430B6015E0244B00221A60FFF720FA47
:1028C000386108E0FFF71CFA02463B69D31A022B75
:1028D00001D9032387E11B4B1B6803F00203002B84
:1028E000F0D17B681B6803F00803002B36D07B68AF
:1028F0005B69002B16D0154B01221A60FFF700FA16
:10290000386108E0FFF7FCF902463B69D31A022B55
:1029100001D9032367E10B4B5B6F03F00203002B2C
:10292000F0D01BE0094B00221A60FFF7E9F938618B
:102930000EE0FFF7E5F902463B69D31A022B07D9EF
:10294000032350E10038024000004742800E474216
:10295000884B5B6F03F00203002BEAD17B681B6896
:1029600003F00403002B00F097800023FB75814BDC
:102970001B6C03F08053002B0FD10023BB607D4BF9
:102980001B6C7C4A43F0805313647A4B1B6C03F03E
:102990008053BB60BB680123FB75774B1B6803F456
:1029A0008073002B18D1744B1B68734A43F48073F7
:1029B0001360FFF7A5F9386108E0FFF7A1F90246B7
:1029C0003B69D31A022B01D903230CE16A4B1B6824
:1029D00003F48073002BF0D07B689B68012B06D139
:1029E000644B1B6F634A43F0010313671CE07B6871
:1029F0009B68052B0CD15F4B1B6F5E4A43F00403B1
:102A000013675C4B1B6F5B4A43F0010313670BE0DA
:102A1000584B1B6F574A23F001031367554B1B6F2D
:102A2000544A23F0040313677B689B68002B15D07E
:102A3000FFF766F938610AE0FFF762F902463B6981
:102A4000D31A41F28832934201D90323CBE0494B98
:102A50001B6F03F00203002BEED014E0FFF750F9D8
:102A600038610AE0FFF74CF902463B69D31A41F29C
:102A70008832934201D90323B5E03E4B1B6F03F02C
:102A80000203002BEED1FB7D012B05D1394B1B6CD2
:102A9000384A23F0805313647B689B69002B00F055
:102AA000A180344B9B6803F00C03082B5CD07B683F
:102AB0009B69022B41D1314B00221A60FFF720F9AC
:102AC000386108E0FFF71CF902463B69D31A022B74
:102AD00001D9032387E0274B1B6803F00073002B09
:102AE000F0D17B68DA697B681B6A1A437B685B6A92
:102AF0009B011A437B689B6A5B08013B1B041A43DA
:102B00007B68DB6A1B061B4913434B601B4B01228E
:102B10001A60FFF7F5F8386108E0FFF7F1F80246B0
:102B20003B69D31A022B01D903235CE0114B1B68CC
:102B300003F00073002BF0D054E0104B00221A6019
:102B4000FFF7DEF8386108E0FFF7DAF802463B6984
:102B5000D31A022B01D9032345E0064B1B6803F06F
:102B60000073002BF0D13DE07B689B69012B07D1FE
:102B7000012338E000380240007000406000474206
:102B80001B4B5B68FB607B689B69012B28D0FB6853
:102B900003F480027B68DB699A4221D1FB6803F071
:102BA0003F027B681B6A9A421AD1FA6847F6C073E3
:102BB00013407A68526A9201934211D1FB6803F480
:102BC00040327B689B6A5B08013B1B049A4207D139
:102BD000FB6803F070627B68DB6A1B069A4201D0D7
:102BE000012300E0002318461837BD4680BD00BF12
:102BF0000038024080B584B000AF786039607B68EF
:102C0000002B01D10123CCE0684B1B6803F00703C4
:102C10003A689A420CD9654B3A68D2B21A70634B43
:102C20001B6803F007033A689A4201D00123B8E019
:102C30007B681B6803F00203002B20D07B681B68B5
:102C400003F00403002B05D0594B9B68584A43F40A
:102C5000E05393607B681B6803F00803002B05D0EA
:102C6000534B9B68524A43F460439360504B9B68BC
:102C700023F0F0027B689B684D4913438B607B68AF
:102C80001B6803F00103002B44D07B685B68012BB9
:102C900007D1474B1B6803F40033002B19D10123E4
:102CA0007FE07B685B68022B03D07B685B68032B4B
:102CB00007D13F4B1B6803F00073002B09D10123A0
:102CC0006FE03B4B1B6803F00203002B01D1012393
:102CD00067E0374B9B6823F003027B685B683449ED
:102CE00013438B60FFF70CF8F8600AE0FFF708F871
:102CF0000246FB68D31A41F28832934201D903237A
:102D00004FE02B4B9B6803F00C027B685B689B00D9
:102D10009A42EBD1254B1B6803F007033A689A42AD
:102D20000CD2224B3A68D2B21A70204B1B6803F0C7
:102D300007033A689A4201D0012332E07B681B689E
:102D400003F00403002B08D0194B9B6823F4E052D6
:102D50007B68DB68164913438B607B681B6803F054
:102D60000803002B09D0124B9B6823F460427B6858
:102D70001B69DB000E4913438B6000F021F802460B
:102D80000B4B9B681B0903F00F030A49CB5C22FA2B
:102D900003F3094A1360094B1B681846FEF76CFFE2
:102DA000002318461037BD4680BD00BF003C0240DE
:102DB00000380240E0470008000000200400002026
:102DC0002DE9B04F90B000AF00237B630023FB637D
:102DD00000233B630023BB63594B9B6803F00C0348
:102DE000082B0DD0082B00F2A180002B02D0042B61
:102DF00003D09BE0534BBB639BE0534BBB6398E01A
:102E00004F4B5B6803F03F037B634D4B5B6803F400
:102E10008003002B28D04A4B5B689B0900223B6251
:102E20007A623B6AC3F308000021474B03FB01F2BF
:102E3000002300FB03F31344434AA0FB0212FA628F
:102E40000A46BA62FA6A1344FB627B6B0022BB61DA
:102E5000FA61D7E90623D7E90A01FDF707FE024622
:102E60000B461346FB6353E0354B5B689B0900221E
:102E70003B617A613B69C3F3080A4FF0000B52468D
:102E80005B464FF000004FF00001590141EAD2616A
:102E9000500102460B46B2EB0A0863EB0B094FF0F8
:102EA00000024FF000034FEA891343EA98634FEAA8
:102EB0008812B2EB080463EB09054FF000024FF0F3
:102EC0000003EB0043EA5473E20014461D4614EB82
:102ED0000A033B6045EB0B037B604FF000024FF0B1
:102EE0000003D7E9004529468B02214643EA915366
:102EF00021468A02104619467B6B0022BB60FA60AD
:102F0000D7E90223FDF7B2FD02460B461346FB63E9
:102F10000B4B5B681B0C03F0030301335B003B634B
:102F2000FA6B3B6BB2FBF3F3BB6302E0054BBB6395
:102F300000BFBB6B18464037BD46BDE8B08F00BF31
:102F4000003802400024F40040787D0180B582B052
:102F500000AF78607B68002B01D1012341E07B68E2
:102F600093F83D30DBB2002B06D17B68002283F85A
:102F70003C207868FEF766FD7B68022283F83D20DE
:102F80007B681A687B6804331946104600F0C0FA63
:102F90007B68012283F846207B68012283F83E206B
:102FA0007B68012283F83F207B68012283F8402060
:102FB0007B68012283F841207B68012283F842204C
:102FC0007B68012283F843207B68012283F8442038
:102FD0007B68012283F845207B68012283F83D202D
:102FE000002318460837BD4680BD80B582B000AFCB
:102FF00078607B68002B01D1012341E07B6893F866
:103000003D30DBB2002B06D17B68002283F83C20E8
:10301000786800F039F87B68022283F83D207B68ED
:103020001A687B6804331946104600F071FA7B6811
:10303000012283F846207B68012283F83E207B68CA
:10304000012283F83F207B68012283F840207B68BF
:10305000012283F841207B68012283F842207B68AB
:10306000012283F843207B68012283F844207B6897
:10307000012283F845207B68012283F83D2000234C
:1030800018460837BD4680BD80B483B000AF786075
:1030900000BF0C37BD465DF8047B704780B584B037
:1030A00000AF786039603B68002B09D17B6893F8EA
:1030B0003E30DBB2012B14BF01230023DBB222E040
:1030C0003B68042B09D17B6893F83F30DBB2012BBE
:1030D00014BF01230023DBB215E03B68082B09D1A4
:1030E0007B6893F84030DBB2012B14BF012300232F
:1030F000DBB208E07B6893F84130DBB2012B14BFF0
:1031000001230023DBB2002B01D0012368E03B68E0
:10311000002B04D17B68022283F83E2013E03B6839
:10312000042B04D17B68022283F83F200BE03B682C
:10313000082B04D17B68022283F8402003E07B68DF
:10314000022283F841207B681B68012239681846F7
:1031500000F084FC7B681B68234A934207D17B689C
:103160001B685A6C7B681B6842F400425A647B6897
:103170001B681D4A934218D07B681B68B3F1804FCF
:1031800013D07B681B68194A93420ED07B681B687A
:10319000174A934209D07B681B68164A934204D0B1
:1031A0007B681B68144A934211D17B681B689B683B
:1031B00003F00703FB60FB68062B10D07B681B68DD
:1031C0001A687B681B6842F001021A6007E07B689E
:1031D0001B681A687B681B6842F001021A600023B2
:1031E00018461037BD4680BD000001400004004075
:1031F00000080040000C00400040014080B586B04F
:1032000000AFF860B9607A600023FB75FB6893F843
:103210003C30012B01D10223AEE0FB68012283F890
:103220003C207B680C2B00F29F8001A252F823F017
:103230006532000869330008693300086933000803
:10324000A5320008693300086933000869330008B3
:10325000E732000869330008693300086933000861
:1032600027330008FB681B68B968184600F0D0F9DE
:10327000FB681B689A69FB681B6842F008029A6148
:10328000FB681B689A69FB681B6822F004029A615C
:10329000FB681B689969BB681A69FB681B680A436D
:1032A0009A6164E0FB681B68B968184600F016FA7A
:1032B000FB681B689A69FB681B6842F400629A61AC
:1032C000FB681B689A69FB681B6822F480629A613C
:1032D000FB681B689969BB681B691A02FB681B685D
:1032E0000A439A6143E0FB681B68B968184600F01E
:1032F00061FAFB681B68DA69FB681B6842F0080228
:10330000DA61FB681B68DA69FB681B6822F004025B
:10331000DA61FB681B68D969BB681A69FB681B68BE
:103320000A43DA6123E0FB681B68B968184600F0BD
:10333000ABFAFB681B68DA69FB681B6842F4006241
:10334000DA61FB681B68DA69FB681B6822F480623B
:10335000DA61FB681B68D969BB681B691A02FB68E4
:103360001B680A43DA6102E00123FB7500BFFB68BA
:10337000002283F83C20FB7D18461837BD4680BDEF
:1033800080B584B000AF786039600023FB737B6840
:1033900093F83C30012B01D10223B4E07B68012279
:1033A00083F83C207B68022283F83D207B681B6801
:1033B0009B68BB60BB6823F07703BB60BB6823F4EA
:1033C0007F43BB607B681B68BA689A603B681B6878
:1033D000B3F5005F3ED0B3F5005F00F28780B3F530
:1033E000805F00F08680B3F5805F7FD8702B1AD0A5
:1033F000702B7BD8602B50D0602B77D8502B3CD0D3
:10340000502B73D8402B58D0402B6FD8302B64D022
:10341000302B6BD8202B60D0202B67D8002B5CD0B2
:10342000102B5AD062E07B6818683B6899683B684B
:103430005A683B68DB6800F0F1FA7B681B689B68A0
:10344000BB60BB6843F07703BB607B681B68BA68EE
:103450009A604FE07B6818683B6899683B685A68D7
:103460003B68DB6800F0DAFA7B681B689A687B6867
:103470001B6842F480429A603CE07B6818683B68B5
:1034800059683B68DB681A4600F04EFA7B681B6897
:103490005021184600F0A7FA2CE07B6818683B68BA
:1034A00059683B68DB681A4600F06DFA7B681B6858
:1034B0006021184600F097FA1CE07B6818683B68AA
:1034C00059683B68DB681A4600F02EFA7B681B6877
:1034D0004021184600F087FA0CE07B681A683B68C8
:1034E0001B681946104600F07EFA03E00123FB73C7
:1034F00000E000BF7B68012283F83D207B6800224A
:1035000083F83C20FB7B18461037BD4680BD000089
:1035100080B485B000AF786039607B681B68FB6061
:103520007B68344A93420FD07B68B3F1804F0BD055
:103530007B68314A934207D07B68304A934203D07C
:103540007B682F4A934208D1FB6823F07003FB602D
:103550003B685B68FA681343FB607B68254A9342CB
:103560001BD07B68B3F1804F17D07B68224A93420F
:1035700013D07B68214A93420FD07B68204A934244
:103580000BD07B681F4A934207D07B681E4A934248
:1035900003D07B681D4A934208D1FB6823F4407333
:1035A000FB603B68DB68FA681343FB60FB6823F051
:1035B00080023B685B691343FB607B68FA681A60B2
:1035C0003B689A687B68DA623B681A687B689A6233
:1035D0007B68084A934203D13B681A697B681A6387
:1035E0007B6801225A6100BF1437BD465DF8047B39
:1035F000704700BF00000140000400400008004088
:10360000000C0040004001400044014000480140DF
:1036100080B487B000AF786039607B681B6A23F0A4
:1036200001027B681A627B681B6A7B617B685B684E
:103630003B617B689B69FB60FB6823F07003FB6068
:10364000FB6823F00303FB603B681B68FA681343C5
:10365000FB607B6923F002037B613B689B687A69AE
:1036600013437B617B681C4A93420CD17B6923F036
:1036700008037B613B68DB687A6913437B617B6984
:1036800023F004037B617B68134A934211D13B69A9
:1036900023F480733B613B6923F400733B613B6817
:1036A0005B693A6913433B613B689B693A69134321
:1036B0003B617B683A695A607B68FA689A613B684B
:1036C0005A687B685A637B687A691A6200BF1C3744
:1036D000BD465DF8047B70470000014080B487B0B0
:1036E00000AF786039607B681B6A23F010027B684A
:1036F0001A627B681B6A7B617B685B683B617B68E5
:103700009B69FB60FB6823F4E043FB60FB6823F4E8
:103710004073FB603B681B681B02FA681343FB6045
:103720007B6923F020037B613B689B681B017A69FE
:1037300013437B617B681E4A93420DD17B6923F062
:1037400080037B613B68DB681B017A6913437B6103
:103750007B6923F040037B617B68154A934213D158
:103760003B6923F480633B613B6923F400633B6165
:103770003B685B699B003A6913433B613B689B690B
:103780009B003A6913433B617B683A695A607B68E6
:10379000FA689A613B685A687B689A637B687A69C1
:1037A0001A6200BF1C37BD465DF8047B704700BF3E
:1037B0000000014080B487B000AF786039607B685A
:1037C0001B6A23F480727B681A627B681B6A7B61C8
:1037D0007B685B683B617B68DB69FB60FB6823F0AF
:1037E0007003FB60FB6823F00303FB603B681B680E
:1037F000FA681343FB607B6923F400737B613B68C9
:103800009B681B027A6913437B617B681D4A934264
:103810000DD17B6923F400637B613B68DB681B028D
:103820007A6913437B617B6923F480637B617B68E6
:10383000144A934213D13B6923F480533B613B69A3
:1038400023F400533B613B685B691B013A691343F6
:103850003B613B689B691B013A6913433B617B6891
:103860003A695A607B68FA68DA613B685A687B6833
:10387000DA637B687A691A6200BF1C37BD465DF85F
:10388000047B70470000014080B487B000AF7860CF
:1038900039607B681B6A23F480527B681A627B68FC
:1038A0001B6A3B617B685B687B617B68DB69FB60F3
:1038B000FB6823F4E043FB60FB6823F44073FB6088
:1038C0003B681B681B02FA681343FB603B6923F4E7
:1038D00000533B613B689B681B033A6913433B61A0
:1038E0007B68104A934209D17B6923F480437B6152
:1038F0003B685B699B017A6913437B617B687A69EA
:103900005A607B68FA68DA613B685A687B681A64B7
:103910007B683A691A6200BF1C37BD465DF8047BBC
:10392000704700BF0000014080B487B000AFF8606E
:10393000B9607A60FB681B6A7B61FB681B6A23F0D5
:103940000102FB681A62FB689B693B613B6923F0DB
:10395000F0033B617B681B013A6913433B617B6960
:1039600023F00A037B617A69BB6813437B61FB68C0
:103970003A699A61FB687A691A6200BF1C37BD46D2
:103980005DF8047B704780B487B000AFF860B96021
:103990007A60FB681B6A23F01002FB681A62FB68FE
:1039A0009B697B61FB681B6A3B617B6923F4704305
:1039B0007B617B681B037A6913437B613B6923F05E
:1039C000A0033B61BB681B013A6913433B61FB6881
:1039D0007A699A61FB683A691A6200BF1C37BD4672
:1039E0005DF8047B704780B485B000AF78603960C3
:1039F0007B689B68FB60FB6823F07003FB603A68A0
:103A0000FB68134343F00703FB607B68FA689A6026
:103A100000BF1437BD465DF8047B704780B487B0A3
:103A200000AFF860B9607A603B60FB689B687B61BF
:103A30007B6923F47F437B613B681A027B681A43EE
:103A4000BB6813437A6913437B61FB687A699A60A8
:103A500000BF1C37BD465DF8047B704780B487B05B
:103A600000AFF860B9607A60BB6803F01F03012201
:103A700002FA03F37B61FB681A6A7B69DB431A4035
:103A8000FB681A62FB681A6ABB6803F01F03796857
:103A900001FA03F31A43FB681A6200BF1C37BD46E4
:103AA0005DF8047B7047000080B485B000AF78609B
:103AB00039607B6893F83C30012B01D1022350E040
:103AC0007B68012283F83C207B68022283F83D203A
:103AD0007B681B685B68FB607B681B689B68BB60DE
:103AE000FB6823F07003FB603B681B68FA681343B4
:103AF000FB607B681B68FA685A607B681B681C4A1D
:103B0000934218D07B681B68B3F1804F13D07B6859
:103B10001B68184A93420ED07B681B68164A934272
:103B200009D07B681B68154A934204D07B681B68E8
:103B3000134A93420CD1BB6823F08003BB603B68FF
:103B40005B68BA681343BB607B681B68BA689A609D
:103B50007B68012283F83D207B68002283F83C20AB
:103B6000002318461437BD465DF8047B704700BF3C
:103B7000000001400004004000080040000C00402C
:103B80000040014080B485B000AF78603960002308
:103B9000FB607B6893F83C30012B01D102233DE0B0
:103BA0007B68012283F83C20FB6823F0FF023B681E
:103BB000DB681343FB60FB6823F440723B689B683F
:103BC0001343FB60FB6823F480623B685B6813432C
:103BD000FB60FB6823F400623B681B681343FB60D7
:103BE000FB6823F480523B681B691343FB60FB684E
:103BF00023F400523B685B691343FB60FB6823F4CA
:103C000080423B68DB691343FB607B681B68FA6892
:103C10005A647B68002283F83C200023184614373E
:103C2000BD465DF8047B70470EB400B59CB01DAB7B
:103C3000029006906FF000410948079104910949EC
:103C400053F8042B05910068019302A900F092F942
:103C5000029B00221A701CB05DF804EB03B07047A1
:103C6000580000200802FFFF02440346934200D19F
:103C7000704703F8011BF9E7014B1868704700BF54
:103C80005800002070B50D4D0D4C641BA41000268B
:103C9000A64209D10B4D0C4C00F06AFC641BA41029
:103CA0000026A64205D170BD55F8043B9847013661
:103CB000EEE755F8043B98470136F2E72C48000838
:103CC0002C4800082C48000830480008704770470E
:103CD00037B5002944D051F8043C0190002BA1F1E4
:103CE0000404B8BFE41800F0DFF81E4A0198136816
:103CF00033B96360146003B0BDE8304000F0DAB857
:103D0000A34208D9256861198B4201BF19685B6815
:103D100049192160EDE71A465B680BB1A342FAD955
:103D200011685518A5420BD1246821445418A342A8
:103D30001160E0D11C685B6853600C441460DAE7E2
:103D400002D90C230360D6E7256861198B4204BFB2
:103D500019685B68636004BF491921605460CAE751
:103D600003B030BD7404002070B50E4E0C463168AF
:103D7000054611B900F0A6FB30602146284600F048
:103D8000A1FB431C0AD0C41C24F00304A04207D0AA
:103D9000211A284600F096FB013001D14FF0FF3484
:103DA000204670BD780400202DE9F843CD1C25F095
:103DB000030508350C2D38BF0C25002D074601DB07
:103DC000A94205D90C233B6000263046BDE8F883A4
:103DD000DFF8D08000F068F8D8F800301C465CBBF3
:103DE00029463846FFF7C0FF431C044655D1D8F892
:103DF00000402646002E45D1002C48D0236831468D
:103E0000384604EB030900F05DFB81453FD1216892
:103E10006D1A29463846FFF7A7FF013037D02368CF
:103E20002B442360D8F80030002B38D05A68A242C7
:103E30002BD100225A600FE02268521B1FD40B2A9C
:103E400017D96119A342256018BF5960636808BF7C
:103E5000C8F8001062514B60384604F10B0600F0C0
:103E600029F826F00706231DF21AAED09B1BA3509B
:103E7000ABE7A3426268DDD1C8F80020ECE7234637
:103E80006468ACE734467668B4E71346CCE70C23A5
:103E90003B60384600F00EF897E72560DCE75B6092
:103EA000FFDE00BF740400200148FFF70FBF00BF12
:103EB000700400200148FFF70ABF00BF7004002013
:103EC0002DE9F0478E681F46BE420B6882460C46BD
:103ED00090462CD88A8912F4906F26D065690969BA
:103EE00005EB4505A3EB010905EBD5757B1C4B44A0
:103EF0006D109D4238BF1D46530527D52946FFF753
:103F000053FF064660B321694A4600F0EBFAA389E5
:103F100023F4906343F08003A381266165614E44DE
:103F2000A5EB09052660A5603E46BE4200D93E4687
:103F300020683246414600F0ABFAA3689B1BA360A1
:103F40002368334423600020BDE8F0872A4600F050
:103F5000D7FA06460028E0D121695046FFF7B8FE9F
:103F60000C23CAF80030A38943F04003A3814FF02B
:103F7000FF30E9E72DE9F04F98468B891B069DB08D
:103F800007460D4614460ED50B6963B94021FFF76D
:103F90000BFF2860286120B90C233B604FF0FF30F5
:103FA000D0E040236B610023099320238DF8293052
:103FB000CDF80C803023DFF8A4818DF82A304FF043
:103FC000010923469A4613F8012B0AB1252AF9D193
:103FD000BAEB040B0BD05B46224629463846FFF766
:103FE0006FFF013000F0A980099A5A4409929AF8AB
:103FF0000030002B00F0A18000234FF0FF32CDE90C
:1040000005230AF1010A049307938DF853301A939C
:104010005446052214F8011B5048FCF7E1F8049AB5
:10402000D8B9D00644BF20238DF85330110744BFC0
:104030002B238DF853309AF800302A2B15D0079A8D
:10404000544600204FF00A0C214611F8013B303B4A
:10405000092B4DD9B0B1079214E0A0EB080309FA7F
:1040600003F313430493A246D2E7039B191D1B6875
:104070000391002BBBBF5B4242F002020793079300
:10408000B8BF049223782E2B0CD163782A2B34D11D
:10409000039B1A1D1B680392002BB8BF4FF0FF3320
:1040A00002340593DFF8C4A0217803225046FCF7C0
:1040B00097F838B1049BA0EB0A00402282401343DA
:1040C0000134049314F8011B25488DF828100622AA
:1040D000FCF786F8002838D0224B1BBB039B073324
:1040E00023F0070308330393099B3344099368E7DC
:1040F0000CFB02320C460120A6E700230134059395
:1041000019464FF00A0C204610F8012B303A092AC4
:1041100003D9002BC6D00591C4E70CFB012104464E
:104120000123F0E703AB00932A460F4B04A938465E
:10413000AFF30080421C0646D6D1AB895B063FF543
:104140002DAF09981DB0BDE8F08F03AB00932A4650
:10415000054B04A9384600F079F8EBE7F047000872
:10416000FA47000800000000C13E0008F6470008BA
:104170002DE9F047164699468A680B69DDF82080DC
:104180009342B8BF1346336091F8432007460C466C
:104190000AB1013333602368990642BF33680233A2
:1041A0003360256815F0060506D104F1190AE368A5
:1041B00032689B1AAB4226DC94F84320131E226817
:1041C00018BF012392062BD404F143024946384616
:1041D000C04701301ED02368226903F00603042B78
:1041E00002BFE5683368ED1AA3680CBF25EAE575E0
:1041F00000259342C4BF9B1AED1800261A34B5421D
:104200001AD1002008E00123524649463846C047EB
:10421000013003D14FF0FF30BDE8F0870135C6E72C
:10422000E1185A1C302081F84300224494F84510CC
:1042300082F843100233C7E7012322464946384635
:10424000C0470130E6D00136D9E700002DE9FF472D
:104250000F7E0C9D782F914680460C469A4601F1C0
:10426000430207D8622F0AD8002F00F0D480582FBD
:1042700000F0C08004F1420584F842703AE0A7F1F2
:104280006303152BF6D801A151F823F0E54200088D
:10429000F94200087542000875420008754200089E
:1042A00075420008F942000875420008754200088E
:1042B0007542000875420008FD43000825430008C8
:1042C000B743000875420008754200081F44000803
:1042D0007542000825430008754200087542000831
:1042E000BF4300082B681A1D1B682A6004F14205B1
:1042F00084F8423001239FE020682B68070603F111
:104300000401296001D51E6803E04606FBD5B3F918
:104310000060002E03DA2D23764284F843305A4899
:104320000A2312E02B682068191D2960050601D5B3
:104330001E6802E04106FBD51E8853486F2F0CBF54
:1043400008230A23002184F843106568A560002D26
:10435000A2BF216821F0040121600EB9002D4BD0CD
:104360001546B6FBF3F103FB1167C75D05F8017D48
:104370003746BB420E46F4D9082B0BD12368DE0723
:1043800008D5236961689942DEBF302305F8013CF6
:1043900005F1FF35521B2261CDF800A04B4603AA60
:1043A00021464046FFF7E4FE01304AD14FF0FF308E
:1043B00004B0BDE8F087236843F02003236033484E
:1043C000782784F84570236829681F0651F8046B24
:1043D00002D45F0648BFB6B2DF0748BF43F02003F0
:1043E000296048BF23601EB9236823F0200323609F
:1043F0001023A7E72448E4E71546BDE72B682668A5
:104400006169181D286035061B6801D5196002E036
:104410007006FBD51980002323611546BCE72B6885
:104420001A1D2A601D68626800212846FBF7D8FE25
:1044300008B1401B606063682361002384F8433047
:10444000AAE723692A4649464046D0470130ADD005
:1044500023689B0713D4E068039B9842B8BF1846B3
:10446000A6E70123324649464046D04701309DD059
:104470000135E36803995B1AAB42F2DCEBE70025F8
:1044800004F11906F5E700BF0148000812480008CA
:10449000884210B501EB020402D98442234607D8B2
:1044A000431EA14208D011F8012B03F8012FF8E7B1
:1044B000024401468A4200D110BD13F8014D02F8B2
:1044C000014DF7E738B5064D0023044608462B603A
:1044D000FDF73EFB431C02D12B6803B1236038BDBE
:1044E0006C0400200A44914200F1FF3300D1704770
:1044F00010B511F8014B03F8014F9142F9D110BDED
:104500002DE9F041804614460E4621B9BDE8F04140
:104510001146FFF749BC2AB9FFF7DAFB25462846C2
:10452000BDE8F08100F01BF88442074602D8B4EBE6
:10453000500F12D821464046FFF736FC05460028AA
:10454000EDD0BC422246314628BF3A46FFF7CAFFAB
:1045500031464046FFF7BCFBE1E73546DFE751F85F
:10456000043C181F002BBCBF0B58C018704700003C
:10457000F8B500BFF8BC08BC9E467047F8B500BF50
:08458000F8BC08BC9E46704720
:1045880048656C6C6F20576F726C6400256400007E
:104598004144433A20256400000000000000000068
:1045A800005F000000000700070000147F147F145C
:1045B80000242A7F2A120023130864620036495512
:1045C800225000000503000000001C2241000000EA
:1045D80041221C000014083E08140008083E080880
:1045E800000050300000000808080808000060605B
:1045F8000000002010080402003E5149453E00001A
:10460800427F4000004261514946002141454B31FB
:10461800001814127F10002745454539003C4A49C7
:104628004930000171090503003649494936000639
:104638004949291E000036360000000056360000A1
:10464800000814224100001414141414000041221C
:10465800140800020151090600324979413E007EE2
:104668001111117E007F49494936003E41414122DE
:10467800007F4141221C007F49494941007F0909C7
:104688000901003E4149497A007F0808087F000077
:10469800417F4100002040413F01007F0814224132
:1046A800007F40404040007F020C027F007F0408EA
:1046B800107F003E4141413E007F09090906003E46
:1046C8004151215E007F091929460046494949316F
:1046D8000001017F0101003F4040403F001F204092
:1046E800201F003F4038403F006314081463000750
:1046F8000870080700615149454300007F414100A7
:10470800000204081020000041417F00000402015B
:104718000204004040404040000001020400002024
:1047280054545478007F4844443800384444442062
:1047380000384444487F00385454541800087E090F
:104748000102000C5252523E007F08040478000017
:10475800447D4000002040443D00007F1028440074
:104768000000417F4000007C04180478007C0804A5
:104778000478003844444438007C141414080008B1
:104788001414187C007C080404080048545454206D
:1047980000043F444020003C4040207C001C204056
:1047A800201C003C4030403C004428102844000CA9
:1047B8005050503C004464544C44000008364100BA
:1047C8000000007F000000004136080000100808C3
:1047D80010080078464146780000000000000000FC
:1047E8000102030406070809232D302B2000686CFA
:1047F8004C006566674546470030313233343536FC
:104808003738394142434445460030313233343534
:0C48180036373839616263646566000061
:0848240078C2FF7F01000000D3
:04482C00C5010008BA
:04483000A1010008DA
:104834000024F4001000000001000000000000004B
:10484400340300209C030020040400200000000026
:104854000000000000000000000000000000000054
:104864000000000000000000000000000000000044
:104874000000000000000000000000000000000034
:0C48840000000000000000000C000020FC
:0400000508001BE1F3
:00000001FF
